:020000040800F2
:10000000700B0020A1010008AD270008A5270008FB
:10001000A9270008C90C0008B52C00080000000042
:100020000000000000000000000000009D2C0008FF
:10003000D90C000800000000B1270008A12C00081E
:10004000BB010008BB010008BB010008BB010008A0
:10005000BB010008BB010008DD0C0008BB01000863
:10006000BB010008BB010008BB010008CD0C000863
:10007000BB010008BB010008BB010008BB01000870
:10008000BB010008BB010008BB010008BB01000860
:10009000BB010008BB010008BB010008BB01000850
:1000A000BB010008BB010008BB010008BB01000840
:1000B000BB010008BB010008BB010008BB01000830
:1000C000BB010008BB010008BB010008BB01000820
:1000D000BB010008BB010008BB010008BB01000810
:1000E000BB010008BB010008BB01000800F002F8DA
:1000F00000F047F80AA090E8000C82448344AAF17B
:100100000107DA4501D100F03CF8AFF2090EBAE878
:100110000F0013F0010F18BFFB1A43F0010318473B
:10012000644E0000844E0000103A24BF78C878C1A5
:10013000FAD8520724BF30C830C144BF04680C60ED
:10014000704700000023002400250026103A28BF35
:1001500078C1FBD8520728BF30C148BF0B60704739
:10016000662904F0F782002070471FB500F0A0FB5D
:1001700004000020002103F0EFFBE0601FBD10B57C
:1001800010BD00F095FC1146FFF7EFFF02F094FD63
:1001900000F0B3FC03B4FFF7F2FF03BC00F0F6FC81
:1001A0000948804709480047FEE7FEE7FEE7FEE70B
:1001B000FEE7FEE7FEE7FEE7FEE7FEE70448054947
:1001C000054A064B70470000B12C0008ED000008FE
:1001D00070050020700B00207007002070070020C1
:1001E0000FB41CB5074B06AA7B44694600900598DE
:1001F00000F013FB0020694600F022FB1CBC5DF8F8
:1002000014FB0000550600002DE9F0474FF0000AEE
:1002100089460446C0F820A02046E16888470028A7
:1002200076D0252806D0D4E901219047206A401CC9
:100230002062F1E7E168204600258847C4F81CA049
:1002400006460027C4F818A02A2E09D0304603F02D
:100250007BFB38B304EB8708303EC8F8186019E020
:1002600059F8041B204604EB87029161E168884736
:10027000012F064618D1E069002820DA25F0200574
:100280001DE0D8F8180000EB800006EB4000303885
:10029000C8F818002046E1688847064603F054FB7A
:1002A0000028EED1012F0AD02E2E08D12046E16879
:1002B00088477F1C0646022F45F02005C4DBA06955
:1002C000002803DA404245F00105A061E80701D0AB
:1002D00025F01005B6B1A6F14100192802D8203644
:1002E00045F400654A463146204625604D46FFF7F5
:1002F00037FF58B1012806D0ED1D25F0070000F1A9
:10030000080989E704E005F1040985E730468AE732
:10031000206ABDE8F087032A40F2308010F0030C19
:1003200000F0158011F8013BBCF1020F624498BF48
:1003300011F801CB00F8013B38BF11F8013BA2F1E5
:10034000040298BF00F801CB38BF00F8013B11F060
:10035000030300F07A82083AC0F0088051F8043BA9
:10036000083A51F804CBA0E80810F5E7121D5CBF6D
:1003700051F8043B40F8043BAFF30080D20724BFA0
:1003800011F8013B11F801CB48BF11F8012B24BF34
:1003900000F8013B00F801CB48BF00F8012B704783
:1003A0004FF0000200B5134694469646203922BF0E
:1003B000A0E80C50A0E80C50B1F12001BFF4F7AF59
:1003C000090728BFA0E80C5048BF0CC05DF804EB3B
:1003D000890028BF40F8042B08BF704748BF20F8A9
:1003E000022B11F0804F18BF00F8012B70477047A7
:1003F000704770472DE9FF4F0C461E464FF0FF3700
:100400008BB0D2E90001DDF860800A908A46C1F322
:100410000A5505B93D46002108464FF00000BAF1E3
:10042000000F00F4400005DA00EB80004FF44001BB
:1004300001EA50004FEA9059B9F1010F00DDB946C9
:100440000A9850EA4A000ED044F61050A5F2FF3543
:1004500045432F14B8F1000F1ED07542291E1EDD32
:10046000C9F100021CE0B8F1010F4FF0000001D00B
:10047000302103E0F24305E02154401CB042FBDB95
:1004800030460022002121540B99C1F80880C1E9AF
:1004900000200FB0BDE8F08FBD1B6D1CDEE74A46A3
:1004A00000DA694206A800F08DFA06AB93E807006F
:1004B00003AB83E8070050460A9902F069FE8DE815
:1004C0000700A0F500501F3800900398002D0ADDAA
:1004D00042F21F014A460844002303A903906846DC
:1004E00003F0D2F809E0A0F500504A461F38002377
:1004F00003A90390684603F0DCF88DE807000004C8
:10050000000C03D04FF0FF30410800E01046B8F176
:10051000000F03D00022009215461EE0751E05D480
:1005200000F0CAF9303262556D1EF9D5B34601228A
:10053000084302D000227F1C04E02078302801D13B
:1005400000227F1E002A099784D01DE0112D07DAB2
:1005500000F0B2F9303262556D1C50EA0102F5D15B
:10056000084302D00098C8B10EE00021681E05E0E3
:10057000235C625C63542254401E491C8142F7DBB9
:10058000AB46A81B401E0990002004F80B000B98F6
:10059000099AC0F80880C0E9002B7AE711264FF0CD
:1005A000000857E72DE9F04F88460446D21D22F097
:1005B000070191B0D1E90001CDE90A0103F0B0F9DA
:1005C00002460B98C00F01D02D2007E0206881075C
:1005D00001D52B2002E0202101EAC000032A099066
:1005E00001D0072A05DB03464146204600F0AAF960
:1005F0000BE12078800601D5E06900E00620B8F123
:10060000650F814606D0B8F1660F18D0B8F1670FB4
:1006100070D131E00020B9F1110F009001DB1123FE
:1006200001E009F101030AAA01A90CA8FFF7E2FE03
:10063000DDE90C70002609F10105834647E0012041
:100640004B4600904FF000470AAA01A90CA8FFF7FB
:10065000D1FEDDE90DB00C995D46002610B909F117
:1006600001000D18B9EB050003D4C0F1FF3609F104
:100670000105A5EB09002BE0B9F1010F01DA4FF0FC
:1006800001090020B9F1110F0090484601DD112346
:1006900000E003460AAA01A90CA8FFF7ABFEDDE9BA
:1006A0000C704D4600268346207800070AD4AB45DF
:1006B00000DA5D4601A8012D04DD411911F8011C85
:1006C000302907D04F4502DA17F1040F04DA012070
:1006D00082460FE06D1EEEE7002F02DCED1B3E446C
:1006E00003E0781CA84200DD7D1CB81B00F1010A64
:1006F0004FF000472078000703D4AA4501DB4FF0F4
:10070000FF3A0021B7F1004F0DF143088DF8431077
:1007100024D002202B23002F01DA7F422D230A212F
:10072000021EA0F1010000DC5FB197FBF1FC97FB1A
:10073000F1F201FB1C7C17460CF1300C08F801CDDE
:10074000EEE7A8F1010003702188090501D54521D4
:1007500000E06521A0F1010800F8011C09980FA92B
:10076000A1EB0807FF1D00B10120411901EBEA7060
:10077000A1693844081A401EA0612078C00602D43E
:100780002046AFF30080099828B1D4E901219047B1
:10079000206A401C20622078C00622D52046AFF394
:1007A00000801EE0002E04DBB34502DD01A8805D61
:1007B00000E03020D4E901219047206A401C2062EB
:1007C000761CAAF101005FEA000A0AD100F070F875
:1007D000C0680168405CD4E901219047206A401C50
:1007E0002062281EA5F10105DCDC07E0D4E9012127
:1007F00018F8010B9047206A401C2062381EA7F1B0
:100800000107F3DC2046AFF30080032011B041E67E
:1008100001694A1C02610878704700B58FB0CDE9C4
:1008200001310021059105497944CDE903101146B4
:100830006846FFF7E9FC0FB000BD0000E5FFFFFFD1
:100840000A6802F8010B0A60704710B5203AC0F040
:100850000B80B1E81850A0E81850B1E81850A0E893
:100860001850203ABFF4F5AF5FEA027C24BFB1E82C
:100870001850A0E8185044BF18C918C0BDE810406F
:100880005FEA827C24BF51F8043B40F8043B08BF78
:100890007047D20728BF31F8023B48BF11F8012B3F
:1008A00028BF20F8023B48BF00F8012B704700002A
:1008B000004870473800002030B5B0F10A0271F1ED
:1008C00000034FEA900E4EEA817EB0EB0E0061EB22
:1008D00091014FEA101E4EEA017E10EB0E0041EB33
:1008E00011114FEA102E4EEA016E10EB0E0041EB93
:1008F00011214FEA104E4EEA014E10EB0E0041EB73
:100900001141401841F100014FEAD00040EA417026
:100910004FEAD1014FEA810444EA907410EB80055C
:1009200044EB01046D1944EB0404521BA3414FF046
:10093000000348BF0A3200D530BD401C41F1000120
:1009400030BD00002DE9F0411F4604460326016832
:10095000072A01F4006004DB08B116A505E016A51E
:1009600003E008B115A500E015A521F010002060F6
:10097000A069C01EA0610FB1401EA0612046AFF368
:1009800000804FB1D4E9012138469047206A401CCD
:100990002062C01C206206E0206AFAE7D4E9012147
:1009A00015F8010B9047761EF8D22046AFF3008071
:1009B000BDE8F0814E414E006E616E00494E46002A
:1009C000696E66002DE9F047814616468AB03548C3
:1009D00078440DC88DE80D0032487844801C03AC83
:1009E0000DC884E80D0041F69B300844372190FB88
:1009F000F1F290FBF1F5A5F1800501FB12041B3C1F
:100A000002D56442012000E00020DFF898A0804673
:100A10000027FA44AAF1BE0A0EE0E0070AD03246E7
:100A2000684607EB470101230AEB810102F041FE12
:100A30008DE8070064107F1C002CEED1194F7F4415
:100A4000AE3F19E0E80715D007EB04100DF1180AC6
:100A500090E80E008AE80E00C068F04201D19819B3
:100A600008903246012306A903A802F022FE03AB38
:100A700083E807006D10641C002DE3D14FF00103E3
:100A800032466946B8F1000F03A802D002F0FCFD1F
:100A900001E002F00EFEC9E90001C9F808200AB021
:100AA000BDE8F087003E00000048704718000020B5
:100AB0007546FFF7F9FFAE4605006946534620F03C
:100AC0000700854618B020B5FFF778FBBDE8204049
:100AD0004FF000064FF000074FF000084FF0000BFA
:100AE000AC46ACE8C009ACE8C009ACE8C009ACE869
:100AF000C00921F007018D46704710B50446AFF3D9
:100B000000802046BDE81040FFF744BB4FF0013C99
:100B100050F8042B51F8043B9A4221D1A2EB0C036C
:100B2000934313EACC1317D150F8042B51F8043B2C
:100B30009A4215D1A2EB0C03934313EACC130BD1C9
:100B400050F8042B51F8043B9A4209D1A2EB0C0354
:100B5000934313EACC13DBD04FF00000704700BF83
:100B6000D01A01BAB1FA81F101F0180122FA01F0AC
:100B7000CB40DBB2C0B2C01AC1F120012CFA01F3A4
:100B8000D11A914311EAC311E6D1704701491820E7
:100B9000ABBEFEE726000200704700000146406A37
:100BA000826A12F0500F03D0006A026B08461047A9
:100BB0000168826A42F400728262896801F46021ED
:100BC000B1F5602F01D1017B11B100F061B900BF17
:100BD000816A21F480718162816AC90448BF00F092
:100BE00057B9816A41F00101816200F051B90000FA
:100BF000406A816A41F040018162C16A41F00401AA
:100C0000C16200F049B90000406A00F043B9000039
:100C1000B0B582B004460020019021688A68D207EE
:100C20004FD1886840F00100886040F21000C2F2A5
:100C3000000000684DF68361C4F21B31A0FB010186
:100C4000880C01900198A0B1019801380190019899
:100C500078B1019801380190019850B1019801389C
:100C60000190019828B1019801380190019800285D
:100C7000EAD100F02DFD21688968C9071CD105461D
:100C800003E000BF8068C0071AD100F021FD411BBE
:100C900020680329F6D38168C907F3D1A06A40F020
:100CA0001000A062E06A40F00100E062002084F8D9
:100CB0002400012002B0B0BD002002B0B0BD00BFD2
:100CC000002002B0B0BD0000FEE7000040F2D040BE
:100CD000C2F2000000F082BA7047000080B5012027
:100CE00000F0D6FB40F60000C4F201000121BDE88F
:100CF000804000F0E7BC0000EFF3108072B600BF48
:100D0000FEE7000010B581B00022009290F8242088
:100D1000012A03D10221084601B010BD4B6801220F
:100D2000062B80F8242017D8D0F800C003EB8303EB
:100D30005A1F1F23DCF834E003FA02F40B682EEA92
:100D4000040403FA02F22243CCF83420092B03EB0B
:100D5000430219D936E000BFD0F800C00C2B03EBDA
:100D600083021DD8233A1F23DCF830E003FA02F493
:100D70000B682EEA040403FA02F22243CCF8302076
:100D8000092B03EB43021DD8DCF8103007248968D7
:100D90009440A34391401943CCF81010002130E057
:100DA000413A1F23DCF82CE003FA02F40B682EEA28
:100DB000040403FA02F22243CCF82C20092B03EBA3
:100DC0004302E1D9DCF80CE01E3A0724896894401C
:100DD0002EEA0404914023F001022143102ACCF8AA
:100DE0000C100DD142F20841C4F20101A1F1080238
:100DF00094450DD0816A41F020018162012100E01B
:100E00000021002280F82420084601B010BD00BF58
:100E10000A68120230D40A68102B42F400020A60F9
:100E20002CD140F21001C2F2000109684DF6836234
:100E3000C4F21B32A1FB0212910C01EB81014900AB
:100E400000910099E1B10099013900910099C9B16F
:100E50000099013900910099B1B1009901390091CF
:100E6000009999B1009901390091009900294FF03A
:100E70000001E8D1C5E700BF0021C2E70021C0E7BB
:100E80000021BEE70021BCE70021BAE70021B8E756
:100E9000704700007047000070470000B0B50028A0
:100EA00000F0A8800446806A20B121688868C007E5
:100EB0000BD114E00020E06284F82400204600F00A
:100EC0009BF821688868C00709D0886820F0010075
:100ED000886000F0FDFB21688A68D20726D1A06AED
:100EE000C0063AD4A06A41F2021290430230A062D6
:100EF000E069D4E9013240EA030C531EB3FA83F3EC
:100F00005D091346B2F5807F18BF2B02207D257B3B
:100F100001284CEA450030D135B3A56A45F02005DB
:100F2000A562E56A45F00105E56226E0054602E0B6
:100F30008868C007D3D000F0CBFB401B2168032892
:100F4000F6D38868C007F3D0A06A40F01000A06212
:100F5000E06A40F00100E062A06AA06A40F0100080
:100F6000A0620120B0BD00BFD4F818C04EF6000545
:100F7000CFF6FF7505EB4C352B434D68B2F5807FFE
:100F800025F4694543EA05034B608B684FF2FD7514
:100F9000CFF6E17503EA050343EA00038B6001D055
:100FA000012A07D122690023CFF6F07303EB025226
:100FB00001E000BF0022CB6A23F470031A43CA6227
:100FC000896840F6FE62CFF61F721140814207D158
:100FD0000020E062A16A012262F30101A162B0BDBA
:100FE000A06A40F0100020F00200A062E06A40F029
:100FF0000100E0620120B0BD2DE9F04186B040F66D
:1010000000050446C4F20105006805F5E05100271B
:1010100088420597049703D006B0BDE8F08100BF71
:1010200041F21800C4F2020001680DF1080841F411
:10103000007101600168032601F4007101910199BA
:10104000016841F004010160016801F004010191AF
:101050000199016841F0080101600068414600F013
:10106000080001900198262002902846039600F07F
:101070001BFA0220CDE9020605F58060414600F02A
:1010800013FA40F2D0450820C2F20005C4F2020073
:101090004FF40072C5E9000705F1100080214FF4FC
:1010A00000632026CCC02846C5E9027100F064F92F
:1010B000002818BFFFF720FE25626C6206B0BDE86D
:1010C000F081000070B515460446006842F6000243
:1010D000C4F2010290420E4605D042F20041C4F231
:1010E0000101884209D142F20440C4F201000068C3
:1010F00010F4702F1CBF012070BD94F8240001284B
:1011000004BF022070BD012084F824002046FFF7B0
:101110007FFD18B1002184F8241070BD42F2044014
:101120002168A26AC4F2010040F601739A4300F5F7
:101130007F7302F580729942A26243D0A06A20F4C4
:101140008010A0624868400504D5A06A012262F3BD
:101150000D30A062A26A0020D2044FF0000244BF0A
:10116000E26A22F00602E26284F82400206A40F675
:101170009D32C0F6000240F6094340F6F13C00F112
:10118000280EC0F60003C0F6000C8EE80C106FF0BD
:1011900002020A608A682B4642F480728A604C31EF
:1011A000324600F025F92068816801F460228168E8
:1011B000B2F5602F0CBF41F4A00141F480118160B1
:1011C000002070BD026812F4702FB7D0A26A42F4FA
:1011D0008012A26200684005BCD5B6E710B5D0E920
:1011E0000FCE0168DCF800300A6823FA0EF35C07C2
:1011F0002AD512F0040427D00A68920603D40A689C
:1012000022F004020A602F22C4F20202914240F24C
:101210000402C4F2020259DD3023C4F202039942EF
:1012200070D04423C4F20203994271D05823C4F20F
:101230000203994278D14FF480231360C16A0029D8
:1012400040F097806EE000BF9C0727D512F00204A3
:1012500024D00A68920606D40A6822F00A020A60BC
:10126000012280F821202F22C4F20202914240F292
:101270000402C4F2020239DD3023C4F202039942AF
:101280005ED04423C4F2020399425DD05823C4F2D5
:10129000020399425ED14FF4003363E01B0741D54E
:1012A00012F0080208BF10BD0A6822F00E020A60A0
:1012B000012101FA0EF2CCF804208163016B4FF496
:1012C00080720029028454D12CE000BF0823C4F2AC
:1012D0000203994222D01C23C4F20203994223D173
:1012E00040231360C16A002943D11BE00823C4F2E4
:1012F000020399422CD01C23C4F20203994229D143
:1013000020232FE04FF480631360C16A89BB09E09A
:101310004FF480431360C16A59BB03E00423136098
:10132000C16A31BB10BD00BF02F168044FF0806399
:10133000A14208BF4FF480031360C16AC9B9F1E745
:101340004FF400730EE000BF4FF400530AE000BFFB
:10135000022307E002F168044FF00073A14208BFC6
:101360004FF400131360816A0022002980F82020C6
:10137000D8D0BDE810400847002804BF01207047BE
:101380002DE9F04101684FF6F872CBF6FD724CF68C
:10139000CD430A44CCF6CC43A2FB03236FF00307F2
:1013A00007EA93030027C4F2020700F1040E00F1DC
:1013B0001008C0E90F739EE8045098E870010B68AC
:1013C00043F6F077BB431A4342EA0C0242EA0E02AC
:1013D00022432A43324342EA08020A6000214FF4C2
:1013E000807281630284BDE8F041084670470000C6
:1013F000F0B590F820C0BCF1010F32D090F821C0B8
:101400004FF0010EBCF1010F80F820E026D14FF023
:10141000020C80F821C04FF0000CC0F838C0D0E9B1
:1014200000C4C56AC66BDCF80070102C27F00107F9
:10143000CCF80070006C0EFA00F070600846CCF832
:10144000043004BF10460A46CCF80800CCF80C2043
:10145000DCF8000045B140F00E000DE0002180F8FE
:1014600020100220F0BD00BF20F00400CCF80000E6
:10147000DCF8000040F00A00CCF80000DCF80000C6
:1014800040F00100CCF800000020F0BD70470000E3
:1014900040F21441C4F201010A68024214BF08601C
:1014A0007047FFF7F3BF00002DE9F04F82B00E68E0
:1014B000002E00F0038140F20C4C41F200424FF646
:1014C000FF7EC4F2010CC4F20102042700240123B0
:1014D000C1F2100E4FF0000A4FF00009904208BF11
:1014E0000327009745E000BF012704F00C030F22FB
:1014F0009A402BEA020207FA03F34FEA9A051A43CD
:1015000046F82520D1F804B040F20045C4F20105A8
:101510005FEACB322A6854BF22EA080242EA080294
:101520002A606A685FEA8B3354BF22EA080242EA03
:1015300008026A605FEACB23AA6854BF22EA080265
:1015400042EA08025FEA8B23AA60DCF800204FF031
:10155000010354BF22EA080242EA0802CCF8002044
:101560000E680AF1010A36FA0AF204F1040400F0E6
:10157000A58003FA0AF816EA080FF1D04E687645FE
:1015800012DC122E56D8DFE806F0350B45495555CA
:1015900055555555555555555555554D510000BF47
:1015A000D1F80C9046E000BF4FF6FF72C1F2210265
:1015B00096420FDC0022C1F2110296421AD000229C
:1015C000C1F21202964215D00022C1F221029642C7
:1015D00010D02FE00022C1F2220296420AD000224F
:1015E000C1F23102964205D00022C1F23202964287
:1015F00020D100BF8A684AB1012A14BFC0F8148004
:10160000C0F810804FF0080914E000BF4FF0040943
:1016100010E000BFCA6802F108090BE04FF00009B2
:1016200008E000BFCA6802F1040903E0CA6802F1D9
:101630000C0900BF22460646BAF1080F24BF203A23
:10164000043637680F25954027EA050509FA02F2A6
:101650002A433260CA79D2067FF582AF41F218037D
:10166000C4F202031A6842F001021A601A6802F01A
:1016700001020192019A40F20042C4F20102A2F575
:101680007E762AF0030256F802B040F60002C4F259
:101690000102904210D040F60042C4F20102904292
:1016A0003FF422AF41F20002C4F20102009F9042D7
:1016B00008BF022719E700BF002716E702B0BDE800
:1016C000F08F00008068084018BF012070470000BC
:1016D00040F26850C2F200000068704770B5B8B3BD
:1016E000044690F83D0028B9002084F83C002046CC
:1016F00000F000FC242084F83D002068016821F0FF
:1017000001010160016841F400410160016821F4B8
:101710000041016000F03EFE48F28041C0F21E012F
:1017200040F60013D4F804E088424FF00001C0F204
:101730003D0348F2A16C4FF0000238BF01219842EE
:10174000C0F2010C38BF0122E64538BF0A460AB193
:10175000012070BD4DF68361C4F21B31A0FB011264
:101760002168950C4B684FF4967623F03F0343EACB
:101770009243754344F6D3564B60C1F262060B6A3E
:10178000A5FB0656B50923F03F03E64538BF950C87
:101790006A1C1A430A62CA6948F2A0664CF6FF73D3
:1017A000C0F20106B64522EA03020BD801384FEA1F
:1017B0004E03B0FBF3F001306FF31F30042898BFE5
:1017C00004201EE0A368013863B119230EFB03F364
:1017D000B0FBF3F001306FF31F3078B100F58040BB
:1017E00008E000BF0EEB4E03B0FBF3F001306FF3E7
:1017F0001F3028B100F5004003E000BF012000E0E9
:1018000001201043C8610868D4E9072320F0C00014
:10181000104318430860886848F2FF3204F10C0650
:1018200090434CCE18431043A5698860C86820F0E7
:10183000FF0030432843C860086840F0010008609A
:1018400000202021206484F83D10206384F83E00AD
:1018500070BD00002DE9F04F81B01D4690460E4648
:101860000446FFF735FF94F83D10202918D10746AC
:101870002168886980070FD5FFF72AFFC01B192848
:10188000F6D900202021206384F83D1084F83E0022
:10189000216C0225C1E000BF94F83C00012805D16D
:1018A0000225284601B0BDE8F08F00BF012084F872
:1018B0003C000868C00703D1086840F001000860D8
:1018C000086806F0FE0920F400600860242084F80F
:1018D0003D00002020640020CFF6FF70012605F1B6
:1018E000010A4FF0A00BE062B8F1020F98BF4FF071
:1018F0000208086840F4807008604869C0070FD18A
:10190000BAF1000F56D0002D00F09C80FFF7E0FEEA
:10191000C01BA84200F2988021684869C007F5D032
:10192000C1F81090FFF7D4FE21684B694A6994F81A
:101930003D70A02F07461ED013F0020008BF12F41E
:10194000806018D1FFF7C4FE35B1C01BA84288BF24
:1019500084F83DB002E000BF84F83DB021684A69D8
:10196000486994F83D30A02B05D012F0020208BF60
:1019700010F48060E6D0202084F83D0048690A68B1
:10198000800742F400720A6022D46FF480604861DC
:101990008869800709D500BFFFF79AFEC01B192888
:1019A00032D8216888698007F6D401364645A0D12F
:1019B0003CE000BF4869C007B2D14869C00704BF16
:1019C00048695FEAC070ABD14869C007F2D0A7E7A9
:1019D0000025009548690090886900900098886902
:1019E000800708D5FFF774FEC01B19280CD82068A3
:1019F00080698007F6D4202084F83D0084F83C50AC
:101A0000284601B0BDE8F08F00202021206384F833
:101A10003D1084F83E00216C012541F02001216435
:101A200084F83C00284601B0BDE8F08F202084F8FF
:101A30003D000020012584F83C00284601B0BDE8A7
:101A4000F08F00BFFFF744FE00202021206384F8C0
:101A50003D1084F83E00216C032541F020012164F3
:101A6000216884F83C000868C00544BF4FF400704A
:101A70002064284601B0BDE8F08F00002DE9F04356
:101A800081B01F46164688460446FFF721FE94F8AB
:101A90003D10202920D1054620688169890717D586
:101AA000FFF716FE401B1928F6D9002020212063DD
:101AB00084F83D1084F83E00216C022641F020019C
:101AC000216484F83C00304601B0BDE8F08300BFDB
:101AD00094F83C10012905D10226304601B0BDE83A
:101AE000F08300BF012184F83C100168C90703D1CD
:101AF000016841F001010160016821F400610160A9
:101B0000212184F83D10102184F83E100021216429
:101B100066626785618D21850021CFF6FF71E162E4
:101B2000E16A11F5803F18BF012919D1016841F41C
:101B3000807101604169DDF82090C90723D119F156
:101B4000010116D0B9F1000F46D000BFFFF7C0FD6C
:101B5000401B484542D820684169C907F6D012E0C9
:101B60000829E3D0216B1229E0D0E3E74169C907D6
:101B700009D14169C90706D14169C90704BF416953
:101B80005FEAC171F2D02169B1F5804F02D1FE2127
:101B900061E000BF062101EAD811F031016141691D
:101BA000090757D4416919F1010201F480612FD06E
:101BB000002946D1B9F1000F00F04281FFF788FDFE
:101BC000401B484500F23E8120684169090741D425
:101BD00041694905F2D534E0FFF77AFD0020202164
:101BE000206384F83D1084F83E00216C012641F00A
:101BF00020012164216884F83C000868C00544BFC6
:101C00004FF400702064304601B0BDE8F08300BF9F
:101C1000B9B9416909071DD44169490511D4416920
:101C2000090717D4416949050BD44169090711D443
:101C30004169490505D4416909070BD44169490542
:101C4000E7D5016841F4007101606FF48061416182
:101C50000420F8E0FF2101EA0801016141698907D8
:101C60003AD4416919F1010201F4806112D051BBEB
:101C7000B9F1000F00F0E080FFF72AFD401B484556
:101C800000F2DC8020684169890725D44169490553
:101C9000F2D518E0B9B9416989071DD441694905F0
:101CA00011D44169890717D4416949050BD44169A9
:101CB000890711D44169490505D4416989070BD4C5
:101CC00041694905E7D5016841F4007101606FF48D
:101CD000806141610420B6E00026009641690091D0
:101CE000816900910099218D002900F0958009F10A
:101CF0000108014651F8142F120635D4B8F1000F2F
:101D000016D0B9F1000F00F0AF8000BF08684005A1
:101D100000F1B280FFF7DCFC401B484500F2A980CF
:101D20002068014651F8142F1206EFD51CE000BFC1
:101D30000A68520500F1A0800A68120614D40A68E5
:101D4000520500F199800A6812060DD40A685205FE
:101D500000F192800A68120606D40A68520500F162
:101D60008B800A681206E3D5636A194611F8012BC5
:101D700002616162618D01396185278D0146A7F19C
:101D8000010CA4F828C051F8142F52070DD55FEAB2
:101D90000C420AD05A78A7F1020C02619A1C6262C6
:101DA000628D013A6285A4F828C00A6852072FD4D0
:101DB000B8F1000F14D0B9F1000F7BD008684005CE
:101DC00000F18080FFF784FC401B484577D82068ED
:101DD000014651F8142F5207F0D5B4F828C017E087
:101DE0000A6852056ED40A68520711D40A6852056F
:101DF00068D40A6852070BD40A68520562D40A688C
:101E0000520705D40A6852055CD40A685207E7D520
:101E10005FEA0C417FF46DAF016841F4007101602D
:101E2000202084F83D0084F83E6084F83C60304611
:101E300001B0BDE8F08300BFFFF74AFC202002E0BC
:101E4000FFF746FC202000212022216384F83D205A
:101E500084F83E10226C01261043206484F83C1064
:101E6000304601B0BDE8F0830868400504D4FFF7B0
:101E70002FFC202004E000BF6FF480600860042085
:101E800000212022216384F83D2084F83E10226C3A
:101E90001043206484F83C10206C042825D120686D
:101EA0000126016841F400710160304601B0BDE8CF
:101EB000F08300BF0868400504D4FFF709FC202028
:101EC00004E000BF6FF4806008600420002120223D
:101ED000216384F83D2084F83E10226C1043206476
:101EE00084F83C10206C0428D9D00126304601B07B
:101EF000BDE8F08310B586B045F200410068C4F239
:101F0000000100228842049202D006B010BD00BF3A
:101F100041F21804C4F20204206840F00800206076
:101F2000206800F0080001900198C0200290122063
:101F300003900320059001F5384002A9FFF7B4FA99
:101F4000606840F400106060606800F40010019068
:101F5000019806B010BD000040F2000040F2685148
:101F6000C2F20000C2F2000100780A681044086062
:101F70007047000080B542F20000C4F20200016820
:101F800041F010010160032000F08EF80F2000F0F6
:101F900005F800F027F8002080BD000070B540F281
:101FA0000006C2F2000640F210013278C2F20001CF
:101FB0004FF47A730968B3FBF2F20446B1FBF2F115
:101FC000084600F0D7FB0F2C4FF0010508D838B9B0
:101FD0004FF0FF3021460022002500F039F87460F0
:101FE000284670BD82B041F21800C4F202000168B8
:101FF000022241F001010160016801F0010101913B
:102000000199416841F080514160406800F0805082
:10201000009000980420C4F20100016862F31A6184
:10202000016002B070470000002848BF7047C1B28D
:1020300000F01F00012202FA00F04EF20012CEF270
:10204000000242EAD10121F003010860704700005C
:1020500010B54EF60C5CCEF2000CDCF80030C3F389
:10206000022E8EF00704042C28BF0424BEF10303C3
:102070004FF0FF3E0EFA04F438BF0023A14399400D
:102080000EFA03F39A43114300F00F0200F160438C
:102090000901043A03F564436244002848BF02F191
:1020A0000C03197010BD00004EF60C51CEF2000169
:1020B0000A684FF6FF031A4060F30A2242F080607C
:1020C00040F0FD70086070472DE9F04182B0044691
:1020D000007841F21C06C007C4F202064AD03068FC
:1020E00010F0805808D1306840F08050306030687F
:1020F00000F080500190019847F20007C4F20007F9
:102100003868C00512D4386840F480703860FFF732
:10211000DFFA05463868C00508D4FFF7D9FA401B36
:102120006428F7D9032002B0BDE8F081706810F48C
:10213000407012D0616801F4407188420DD070681F
:1021400040F24042C4F24222012320F44071136065
:102150000023C007136071602AD17068616820F4A1
:1021600040700843B8F1000F706003D1306820F070
:10217000805030602068810707D556F8181CA26887
:1021800021F44041114346F8181CC00604D4002035
:1021900002B0BDE8F08100BF56F8180CE16820F4E9
:1021A0008000084346F8180C002002B0BDE8F0811A
:1021B000FFF78EFA054641F2883700BF7068800746
:1021C000CBD4FFF785FA401BB8424FF00300F5D996
:1021D000EBE700002DE9F04381B0002800F0858096
:1021E00042F20008C4F202080446D8F800000D4686
:1021F00000F0070088420CD2D8F8000020F0070059
:102200002843C8F80000D8F8000000F00700A842F2
:102210006BD1206841F204098107C4F2020917D585
:10222000410705D5D9F8001041F4E061C9F8001064
:10223000010705D5D9F8001041F46051C9F8001024
:10224000D9F80010A26821F0F0011143C9F800107C
:10225000C00741D1D8F8000000F00700A8420CD90F
:10226000D8F8000020F007002843C8F80000D8F88C
:10227000000000F00700A84237D12068410707D5C9
:10228000D9F80010E26821F4E0611143C9F80010A8
:10229000000708D5D9F80000216920F4605040EA11
:1022A000C100C9F80000D9F8002002F00C0008288D
:1022B00041F20020C0F27A0050D144F67273C2F3AA
:1022C0008341C0F60003595CD2033BD440F60010B2
:1022D000C0F23D00484341E0606802280AD001286E
:1022E0002AD159F8041C890308D4012001B0BDE8A3
:1022F000F08300BF59F8041C8901F6D5D9F8001005
:1023000021F003010843C9F80000FFF7E1F9064690
:1023100041F28837D9F80000616800F00C00B0EB9A
:10232000810F97D0FFF7D4F9801BB842F2D9032070
:1023300001B0BDE8F08300BF59F8041C8907D4D56B
:10234000DCE700BFD9F8002044F2EC73C2F340424E
:10235000C0F600039A5C4843B0FBF2F0D9F80010D5
:1023600044F2EE72C1F30311C0F60002515C40F278
:10237000100220FA01F140F20400C2F200000068ED
:10238000C2F200021160FFF709FE002001B0BDE8B3
:10239000F083000040F2100041F20401C2F200009C
:1023A000C4F202010068096844F2FE72C1F302211E
:1023B000C0F60002515CC840704700002DE9F041B2
:1023C00082B0002868D00446007841F20006C007B9
:1023D000C4F2020625D0706800F00C0004281BD05F
:1023E000706800F00C00082802D17068C00313D494
:1023F0006068002800F06881B0F5A02F00F07C81B3
:10240000B0F5803F00F07C81306820F4803030608F
:10241000306820F4802076E13068800301D5606860
:10242000D0B32078800718D5706810F00C0F07D053
:10243000706800F00C0008286ED17068C0036BD47F
:102440003068800702D52069012825D1306861698C
:1024500020F0F80040EAC1003060207800071FD467
:102460002078400732D4E56995B1706800F00C001F
:10247000082840F08F80012D0ED07068216A00F48A
:1024800080328A4208D1616A00F47010884203D118
:10249000002002B0BDE8F081012002B0BDE8F0816B
:1024A000A069002862D00020C4F242200121C0F8B7
:1024B0008014FFF70DF90546706A800700F18C80E3
:1024C000FFF706F9401B0228F6D92AE1F06910F05F
:1024D000805808D1F06940F08050F061F06900F058
:1024E00080500090009847F20007C4F20007386857
:1024F000C00529D4386840F480703860FFF7E8F8E8
:10250000054600BF3868C0051ED4FFF7E1F8401B40
:102510006428F7D905E100BF2069002840F20000D7
:10252000C4F2422000F0828001210160FFF7D0F860
:10253000054600BF306880073FF588AFFFF7C8F851
:10254000401B0228F6D9ECE0E068002800F080800B
:10255000052800F09780012800F09880306A20F06C
:1025600001003062306A20F0040092E00020C4F2E2
:1025700042200021C0F88014FFF7AAF8054600BFEA
:10258000706A80077FF56CAFFFF7A2F8401B022846
:10259000F6D9C6E00027C4F2422700203866FFF7CC
:1025A00097F8022D05460BD13068800140F1BE80BE
:1025B000FFF78EF8401B02284FF00300F4D968E7BC
:1025C000306880017FF564AFFFF782F8401B022876
:1025D0004FF00300F4D95CE740F21000C2F20000B3
:1025E000006844F6D351C1F26201A0FB0101480A20
:1025F000019000BF00BF0198411E002801913FF4E7
:102600002FAF00BF0198411E002801913FF428AF71
:1026100000BF0198411E002801913FF421AF00BF87
:102620000198411E00280191E4D119E700210160C1
:10263000FFF74EF8054600BF306880077FF50DAF05
:10264000FFF746F8401B02284FF00300F4D920E7BB
:10265000306A20F001003062306A20F004003062FD
:10266000FFF736F8054641F2883700BF306A800729
:1026700020D5FFF72DF8401BB8424FF00300F5D9E5
:1026800007E700BF306A40F004003062306A40F073
:1026900001003062FFF71CF8054641F2883700BFA1
:1026A000306A800706D4FFF713F8401BB842F7D909
:1026B00037E000BFB8F1000F7FF4D5AEF06920F02D
:1026C0008050F061CFE600BF306820F48030306089
:1026D000306820F480203060FEF7FAFF054600BF26
:1026E000306880037FF59DAEFEF7F2FF401B642843
:1026F0004FF00300F4D9CCE6306840F4802030601D
:10270000306840F480303060FEF7E2FF054600BFDD
:10271000306880033FF585AEFEF7DAFF401B642882
:10272000F6D9032002B0BDE8F08100BF206AB0F501
:10273000803F05D17168A26821F4003111437160B6
:102740007168626A21F474111143084370600120BA
:102750003866FEF7BDFF0446306880013FF598AE4D
:10276000FEF7B6FF001B02284FF00300F4D990E6F5
:1027700070470000411E0020B0EB116F1CBF01200C
:1027800070474EF21002CEF2000251604EF6235115
:10279000CEF20001F0230B700721906011607047AA
:1027A000FFF7E6BFFEE70000FEE70000FEE70000DF
:1027B0007047000040F27802C2F20002508091801F
:1027C000704700002DE9F04182B040F21450C2F28F
:1027D00000007821012244F62063FFF73BF84FF018
:1027E000000418B1204602B0BDE8F08140F2145553
:1027F0004FF42E40C2F20005ADF806000A260DF196
:1028000006022846782102230096FFF737F94FF495
:1028100000580DF10602284678210223ADF8068003
:102820000096FFF72BF94FF480570DF1060228466A
:1028300078210223ADF806700096FFF71FF94FF4D8
:102840003040ADF806000DF106022846782102233B
:102850000096FFF713F94FF44840ADF806000DF16C
:1028600006022846782102230096FFF707F90DF1AA
:102870000602284678210223ADF806400096FFF7AD
:10288000FDF80DF10602284678210223ADF8067006
:102890000096FFF7F3F84FF48040ADF806000DF115
:1028A00006022846782102230096FFF7E7F84FF446
:1028B0000140ADF806000DF10602284678210223FA
:1028C0000096FFF7DBF84FF47F40ADF806000DF1FE
:1028D00006022846782102230096FFF7CFF84FF42E
:1028E0002140ADF806000DF10602284678210223AA
:1028F0000096FFF7C3F84FF42640ADF806000DF13F
:1029000006022846782102230096FFF7B7F84FF415
:102910002840ADF806000DF1060228467821022372
:102920000096FFF7ABF84FF47C50ADF806000DF1C0
:1029300006022846782102230096FFF79FF84FF4FD
:102940002440ADF806000DF1060228467821022346
:102950000096FFF793F84FF45340ADF806000DF1E1
:1029600006022846782102230096FFF787F80DF12A
:102970000602284678210223ADF806400096FFF7AC
:102980007DF84FF45540ADF806000DF106022846DB
:10299000782102230096FFF771F84FF47040ADF8EC
:1029A00006000DF106022846782102230096FFF763
:1029B00065F84FF45940ADF806000DF106022846BF
:1029C000782102230096FFF759F84FF40850ADF82C
:1029D00006000DF106022846782102230096FFF733
:1029E0004DF84FF45A40ADF806000DF106022846A6
:1029F000782102230096FFF741F84FF49050ADF88C
:102A000006000DF106022846782102230096FFF702
:102A100035F84FF45B40ADF806000DF1060228468C
:102A2000782102230096FFF729F80DF106022846C7
:102A300078210223ADF806800096FFF71FF84FF4C7
:102A40000D40ADF806000DF106022846782102235C
:102A50000096FFF713F84FF4A050ADF806000DF103
:102A600006022846782102230096FFF707F84FF464
:102A70002F40ADF806000DF106022846782102230A
:102A80000096FEF7FBFF4FF43850ADF806000DF14D
:102A900006022846782102230096FEF7EFFF40F257
:102AA000D000C2F200004FF48061FDF779FC00F025
:102AB000A5F840F27800C2F20000C0F802400124FC
:102AC000204602B0BDE8F0812DE9F04F87B040F21A
:102AD0007803C2F20003B3F802A00F7807EB0A06EE
:102AE0007F2E05D89E884D7803962E443F2E03D91D
:102AF000002007B0BDE8F08F002D00905AD020389C
:102B000001901878B2FA82F67309013AB2FA82F2A9
:102B10000028069308BF530940F2D00904934FF0F0
:102B200000063B46C2F2000918BF0120059003E0F1
:102B300000230136AE423DD2002BF9D00398841910
:102B4000A2B23F2AF5D801984A6805FB00600296B8
:102B500032F810E004F00700012282404FF6807046
:102B6000C0F20F0000EA041CD043002404E000BFC0
:102B70000F780134BC4219D20AEB0407BFB27F2F91
:102B8000F6D867440EFA04F319F807B01B04049B47
:102B90000BEA0008DDE9055658BF86EA0503002B5D
:102BA00018BF4BEA020809F80780E1E74D78029E5A
:102BB0003B46BEE7F8B240F278015044C2F2000151
:102BC00048805DF81C0BBDE8F08F000070B50378FD
:102BD0007BB114460D46461CD8B229462246FFF763
:102BE00073FF16F8011C884206D116F8013B002B32
:102BF000F2D1002070BD00BF084670BD2DE9F04F36
:102C0000C1B00DF1040B40F214560BF101094FF065
:102C100000086FF07F050A24C2F200064FF0000A98
:102C200040F2D0008035C2F200002F18AAF1500007
:102C30008DF80500304678215A4602238DF804802D
:102C40000094FEF71BFF304678215A460223ADF868
:102C500004800094FEF712FF4FF48050ADF804009A
:102C6000304678215A4602230094FEF707FF4020A1
:102C70008DF80400484639468022FDF74CFB30466B
:102C800078215A4681230094FEF7F8FEB5F5607F5F
:102C90000AF1010AC4D141B0BDE8F08F70470000CD
:102CA00080B5FFF759F9BDE88040FFF779BD000016
:102CB00070470000FEE7000096B0FFF75BF90024C4
:102CC0000120CDE91144CDE90F440C9010904FF450
:102CD000E0104FF48031022515900CA80694CDE940
:102CE0000444CDE90D14CDE91351FFF767FB28B17A
:102CF000EFF3108072B600BFFEE700BF0F20CDE9F2
:102D000007054FF48060CDE90A0407A80221099461
:102D1000FFF760FA20B1EFF3108072B6FEE700BF54
:102D2000022003904FF40040059003A8FFF7CCF970
:102D300020B1EFF3108072B6FEE700BF002541F22C
:102D400018040F95C4F20204206845F2004640F0D2
:102D5000200020602068C4F2000600F020000790E8
:102D600007982068012740F00400206020680CA923
:102D700000F0040007900798206840F008002060E9
:102D8000206800F00800079007980020C1F21100A9
:102D9000CDE90D0506F534400C97FEF785FB0620BE
:102DA00000210022FFF754F90620FFF73DF954F8FF
:102DB000040C002140F0010044F8040C54F8040C09
:102DC000002200F001000C900C980B20FFF740F956
:102DD0000B20FFF729F940F28008C2F2000806F53F
:102DE0005041404640F8201F4FF480714FF460225C
:102DF000C0E90151042107730575C2610161FEF745
:102E00004DF828B1EFF3108072B600BFFEE700BFA7
:102E1000072008F120050E900CA92846CDE90C7773
:102E2000FDF770FF20B1EFF3108072B6FEE700BF30
:102E30000220CDE90C000CA92846FDF763FF28B15C
:102E4000EFF3108072B600BFFEE700BF05200C90C4
:102E500003200D900CA92846FDF754FF20B1EFF395
:102E6000108072B6FEE700BF09200C9004200D9080
:102E70000CA92846FDF746FF20B1EFF3108072B68B
:102E8000FEE700BF40F2145041F68021C2F200007C
:102E9000C0F2060100274FF48042C0E90061C0E99A
:102EA0000277C0E90427C0E906770762FEF716FC3F
:102EB00020B1EFF3108072B6FEE700BF0CA92846E0
:102EC0000422CDE90E77CDE90C77FEF7FBF8FFF78A
:102ED00079FC40F2080446F2666AC2F20004C4F2C9
:102EE0000A0A18E044F64150C5F24120C8F8000033
:102EF00044F64940C4F64C7088F808B0C8F804009D
:102F000003201421FFF756FC404621460122FFF71B
:102F10005DFEFFF773FE0E98DDE90C5600F0AEFF84
:102F20004FF06632534601F035F84FF6006BC4F2AD
:102F3000AF0B00225B4600F00BFE00F023FD0746BE
:102F4000304600F09BFF4FF06632534601F022F806
:102F500000225B4600F0FCFD00F014FD814628468F
:102F600000F08CFF4FF06632534601F013F8002258
:102F70005B4600F0EDFD00F005FD01F0F7F948F6C5
:102F8000154243F20443CEF64A22C3F66173054666
:102F90000E4600F029FD48F288524EF2BC33CDF2C5
:102FA0005A32C3F6847300F0D3FD00F0EBFC01F05D
:102FB000DDF902460B464FF0000B40465BA1CDF811
:102FC00000B0CDF804B0FDF70BF900200021FFF7A9
:102FD000F1FB404621460122FFF7F8FDFFF70EFE08
:102FE000404658A12A463346CDF800B0CDF804B08B
:102FF000FDF7F6F805201921FFF7DCFB40462146D6
:103000000122FFF7E3FDFFF7F9FD00214846C4F276
:10301000C82101F0D3FA01F0A9F94FF06632534606
:1030200000F096FD00F0AEFC01F0A0F902460B4660
:10303000404649A1FDF7D4F800200021FFF7BAFB74
:10304000404621460122FFF7C1FDFFF7D7FD484664
:1030500001F08CF902460B46404644A1FDF7C0F84A
:1030600005201921FFF7A6FB404621460122FFF764
:10307000ADFDFFF7C3FD384601F078F906460D4671
:1030800040463EA132462B46FDF7AAF8002000211B
:10309000FFF790FB404621460122FFF797FDFFF71F
:1030A000ADFD49F69A1249F6991330462946C9F6FC
:1030B0009912C4F2010301F092F938B938464FF081
:1030C0007F5101F0C4F900283FF40CAF38464FF0AF
:1030D0007F5101F0B5F968B938464FF07E5101F0E3
:1030E000B6F938B944F6527088F804B0C4F64A709C
:1030F00016E000BF49F69A1249F699133046294660
:10310000C9F69912C4F20103002701F076F90028EC
:103110007FF401AF45F64120C4F6554088F80470AD
:10312000C8F800000A202321ECE600BF506F736945
:1031300063696F6E3A2025662C20663D252E316628
:1031400000000000566F6C74616A653A2025662C99
:1031500020663D252E3166004C756D696E6F736972
:103160006461643A20252E3166000000566F6C744D
:10317000616A653A20252E3166000000566F6C7436
:10318000616A6520434E593A20252E3166000000C1
:103190005FEA400C08BF91F0000F4FEA8C234FEA22
:1031A000C12243EA51514FEA1C5018BF00F5F040CC
:1031B0004FEA300018BF41F000415FEA6C5C00F05C
:1031C0002980BCF1FF3F08BF40F080407047130CDE
:1031D00006BF12044FF0100C4FF0000C130E04BF8A
:1031E00012020CF1080C130F04BF12010CF1040CB5
:1031F000930F04BF92000CF1020CD30F04BF5200D6
:103200000CF1010C11464FF00002A0F11F00A0EBE1
:103210000C00704711F0004F08BF704731F00041BB
:103220003FF4D5AF0B0C06BF09044FF0100C4FF064
:10323000000C0B0E04BF09020CF1080C0B0F04BFAD
:1032400009010CF1040C8B0F04BF89000CF1020C76
:10325000CB0F04BF49000CF1010CCCF1200322FA82
:1032600003F341EA030102FA0CF2A0EB0C0000F1B7
:103270000100704723F07F4720F07F4C80EA030075
:1032800000F00040ACEB070303F57C5303F1FF03B0
:103290002DE9804909B44FEA144324EA03484FEA70
:1032A000154B25EA0B4E0FF2042606EB13273E784A
:1032B00003FB0667C7F5000707FB06F64FEAD6468D
:1032C00006F102064FEA543707FB066CCCF1005CAE
:1032D0004FEA1C472CEA074C0CFB06F507FB06F4EB
:1032E00004EB15464FEA961649085FEA320234BFEE
:1032F00000204FF000404FEAD13706FB07FC4FEAB1
:103300001C4C0CFB0BF7D21B03FB0CF761EB07010A
:103310000CFB0EF7B0EB074072EB17420CFB08F703
:1033200034BFA2EB0742B2EB074261EB17414FEA11
:103330000C444FEA910706FB07FC4FEA1C4C0CFBC0
:103340000BF7B0EBC74072EB573203FB0CF734BFFF
:10335000A2EBC742B2EBC74261EB57310CFB0EF751
:10336000B0EBC70072EB57720CFB08F734BFA2EB4F
:10337000C702B2EBC70261EB57714FEA816141EAC4
:1033800092114FEA826242EA90124FEA806004EBA7
:10339000CC04039F4FEAD13706FB07FC4FEA1C4CD5
:1033A0000CFB0BF7D21B03FB0CF761EB07010CFBCB
:1033B0000EF7B0EB074072EB17420CFB08F734BF77
:1033C000A2EB0742B2EB074261EB17414FEA8C5583
:1033D00004EB9C244FEA910706FB07FC4FEA1C4CC8
:1033E0000CFB0BF7B0EBC74072EB573203FB0CF74B
:1033F00034BFA2EBC742B2EBC74261EB57310CFBC3
:103400000EF7B0EBC70072EB57720CFB08F734BF36
:10341000A2EBC702B2EBC70261EB57714FEA8161C1
:1034200041EA92114FEA826242EA90124FEA8060CA
:1034300015EB4C2544F100044FEAD13706FB07FC9D
:103440004FEA1C4C0CFB0BF7D21B03FB0CF761EB98
:1034500007010CFB0EF7B0EB074072EB17420CFBB9
:1034600008F734BFA2EB0742B2EB074261EB17410A
:103470004FEA813141EA92414FEA823242EA904278
:103480004FEA80304FEA0C7615EB1C1544F100042E
:1034900048EA03434EEA0B484FF0000EB2EB080C2B
:1034A00071EB030724BF624639464EEB0E0E4FF018
:1034B000000B0018524149414BEB0B0BB2EB080CCF
:1034C00071EB03077BF1000B24BF624639464EEBDC
:1034D0000E0E4FF0000B0018524149414BEB0B0B05
:1034E000B2EB080C71EB03077BF1000B24BF6246C3
:1034F00039464EEB0E0E51EA020718BF46F00106A0
:1035000016EB0E7655F1000254F1000103D5BDE82B
:103510008901BDE80088BDE88901BDE80048B61909
:10352000524141EB0101A3F10103704780807F7E8E
:103530007D7C7B7A79787776767574737271717029
:103540006F6E6E6D6C6C6B6A6A69686867666665DB
:103550006464636362616160605F5F5E5E5D5D5C69
:103560005C5B5B5A5A5959585857575656555555DA
:103570005454535352525251515050504F4F4F4E3A
:103580004E4D4D4D4C4C4C4B4B4B4A4A4A49494988
:1035900048484847474747464646454545444444CA
:1035A0004443434343424242424141419C46002BF3
:1035B00030D477002BD04FEA37071CB503B44FF057
:1035C00010004FF01001BAF1000F06D0BCF1000F4F
:1035D000DCBF40F0080040F008014FF000000FBCD5
:1035E000BDE810400BF1010BBBF1010F08BF5FEA12
:1035F000170722BF12F1010211F101014FF0004142
:1036000043F1000300F0004043EA00007047F9D3A3
:103610005708D0E746EA06464FEA164613F1400F30
:103620001FDD13F1200FDFBF16430A4600212033B0
:103630005B42BED0C3F1200746EA06464FEA164673
:1036400002FA07F746EA070622FA03F2C3F1200757
:1036500001FA07F742EA070221FA03F14FF00003EB
:10366000A7E746EA020646EA06464FEA164646EA53
:103670000106BCBF46EA0646360C4FF000034FF089
:1036800000024FF0000194E72DE9804C70B49A4697
:10369000934691E8380007C831EA400C48BF34EA45
:1036A000430C03D5FFF7E6FDFFF780FFF0BCBDE854
:1036B000008C2DE9804C70B49A46934691E838000E
:1036C00007C810F0804F08BF13F0804F03D100F0FF
:1036D00005F8FFF76BFFF0BCBDE8008C20F07F47DA
:1036E00023F07F4C80EA030000F0004007EB0C035E
:1036F000A3F57C53A3F1FE0392F0000F00F0B3801A
:1037000095F0000F00F077802DE901494FEA114054
:1037100021EA00484FEA144624EA064700FB06FC6B
:1037200008FB06F607FB08F818EB06484CEB164CAE
:1037300000FB07F718EB07484CEB17404FEA124B1A
:1037400022EA0B4E4FEA154625EA06470BFB06FC1C
:103750000EFB06F607FB0EFE1EEB064E4CEB164C60
:103760000BFB07F71EEB074E4CEB174B18EB0B0848
:1037700040F1000018EB0E0B58EB000840F1000080
:103780008F1A4FF000014FF000063CBFC943661B83
:1037900014BFB5EB040C00213CBFC943F61B4FEA34
:1037A000174427EA04454FEA1C472CEA074C04FB60
:1037B000076205FB07F70CFB05F616EB074642EB25
:1037C000174204FB0CFC16EB0C4642EB1C421BEBB5
:1037D000060658EB020241414EEA8E0E46EA9E066C
:1037E00001D5BDE80189B619524141EB0101A3F1B0
:1037F0000103BDE801894FEA144524EA05464FEA72
:10380000114721EA074C05FB07F406FB07F70CFB01
:1038100006F111EB074144EB174405FB0CFC11EBDF
:103820000C4144EB1C444FEA124722EA074C05FBCB
:1038300007F206FB07F70CFB06F616EB074642EB12
:10384000174205FB0CFC16EB0C4642EB1C456A18B4
:1038500054F1000148BF7047B619524141EB0101D4
:10386000A3F10103704795F0000F37D04FEA1142E2
:1038700021EA02464FEA144724EA074C02FB07F10B
:1038800006FB07F70CFB06F414EB074441EB17416A
:1038900002FB0CFC14EB0C4441EB1C414FEA1547B6
:1038A00025EA074C02FB07F506FB07F70CFB06F6BB
:1038B00016EB074645EB174502FB0CFC16EB0C46D6
:1038C00045EB1C42121951F1000148BF7047B6196F
:1038D000524141EB0101A3F1010370474FEA144546
:1038E00024EA05464FEA114721EA074C05FB07F198
:1038F00006FB07F70CFB06F212EB074241EB174100
:1039000005FB0CFC12EB0C4251EB1C414FF0000686
:1039100048BF7047921841EB0101A3F101037047C2
:10392000490050EAC12018BF04204A0D18BF40F0DA
:10393000010040F2FF72B2EB515F08BF40F002009D
:10394000012808BF0520704730380A2801D201201D
:10395000704700207047000010B500290AD0087891
:10396000002807D005487844FDF7D0F8002801D09A
:10397000002010BD0248784410BD00003E16000033
:103980003616000021F0004201F00043A2F160521F
:10399000B2F5801F28BFD2F17F6C0BD95FEA001C03
:1039A00043EAC20242EB507018BF704728BF20F0B4
:1039B00001007047B2F5801FBCBF184670474FEA40
:1039C000410C1CF5001F02D2084600F0BEBE70B5C7
:1039D00000F08AFB00000089FFF7F6BF4FF00040BF
:1039E000A0F580007047000010B591EA030F48BFB2
:1039F00083F0004300F1D483841A71EB030C05D2E9
:103A0000121943EB0C03001B61EB0C014FEA11543C
:103A1000A4EB135CDFF81CE11EEA430F18BF9EEA1B
:103A2000445F00F0748021EA045123EA0E0343F45A
:103A30008013DCF1200E32D322FA0CFE10EB0E00C4
:103A400023FA0CFE41EB0E01CCF1200E03FA0EFE20
:103A500010EB0E00CCF1200E51F10001B1F5801FEA
:103A600032D201EB045112FA0EF2BDE8104058BFF9
:103A70007047401C38BF5FEA420218BF70470028F9
:103A800014BF20F0010041F100014FEA410313F59A
:103A9000001F38BF7047A1F1C04100F073BB012A7D
:103AA00043EB0302ACF1200CDCF11F0E32BF4FF0F0
:103AB000000E23FA0CF310EB030041EB0451B4EBBE
:103AC000115FD0D0A1EB045101F58011490801EB41
:103AD00004515FEA30000ED350F1000038BF12FAF3
:103AE0000EFE08D1BDE81040C9E7401C38BF5FEAB0
:103AF0004202CAD1C3E7BDE810404FEA410313F5C3
:103B0000001F38BF7047A1F1C04100F03BBB9EEAE7
:103B1000445F08D011EA5E0FBDE8104004BF01F019
:103B2000004100207047BDE8104070B500F0DCFA9D
:103B300064FBBE3E0000E0FF491058BFC1F14041A8
:103B40005B1058BFC3F140438B42EFF300807047D6
:103B50002DE9C04130B4DFF8A4C23CEA111418BF0B
:103B60003CEA131400F0ED801CEA111481EA03050D
:103B700044EAD57418BF1CEA131500F0C880A4EB02
:103B8000050404F17F7404F500344FF0004545EA64
:103B9000C12145EAC32341EA505143EA52534FEA57
:103BA000C0204FEAC222994208BF904200F09D8097
:103BB0004FEA13650FF24416765D4FEA134506FB94
:103BC00005F7C7F1807706FB07F74FEAD737A7FB62
:103BD00003687642A7FB06CEC8F5803838BFA8F147
:103BE000010807FB08E6A6FB028C4FF0000EE6FB7F
:103BF00003CEDCF1000CCEF1004E38BFAEF1010E69
:103C0000A6FB0C584FF00007E6FB0E87A1FB08C689
:103C1000A0FB07CE16EB0E064FF0000545F10005A0
:103C2000E1FB076515F1E04E7EBFA4F580345FEA45
:103C300046066D4116F1800745F100054FEA17274A
:103C400047EA05674FEA15254FEA0666A6F1DE4604
:103C5000B6F1805F20D9384605EBC47124F0010C21
:103C600001EB0C11BCF1FE6F02D8F0BCBDE8008185
:103C700024425CBF01F5801E9EEAC47F02D4F0BCE2
:103C8000BDE80081244200F13980A1F1C041F0BCBF
:103C9000BDE8004100F076BA4FEAD02040EA41503A
:103CA0004FEAD1214FEAD22242EA43524FEAD323CC
:103CB000A7FB028607FB036605FB02661EEA0E0FE2
:103CC00058BFA6EB0056B6EB00564FEA520E4EEA2E
:103CD000C37E18EB0E0E56EB530EBCD518EB020844
:103CE0005E417F1C55F10005B5E74FF480154FF09C
:103CF00000074FF000064FF00008ACE701F1C041AB
:103D000001F000414FF00000F0BCBDE800810CEA7A
:103D1000131511EA0C1F00D00CE013EA0C1F00F081
:103D200026804FF0000081EA030101F00041F0BC61
:103D3000BDE80081F0BCBDE8004181EA030100F06C
:103D400021BAF0BCBDE8004170B500F0CDF900BF6C
:103D5000097EFC3E00F007B84FF0000081EA030145
:103D600001F00041704781EA030100F00BBAF0BC9A
:103D7000BDE8004122494FF000007047FFFDFBF90C
:103D8000F7F5F4F2F0EEEDEBE9E8E6E4E3E1E0DE8E
:103D9000DDDBDAD8D7D5D4D3D1D0CFCDCCCBCAC800
:103DA000C7C6C5C4C2C1C0BFBEBDBCBBBAB9B8B727
:103DB000B6B5B4B3B2B1B0AFAEADACABAAA9A8A81A
:103DC000A7A6A5A4A3A3A2A1A09F9F9E9D9C9C9BE8
:103DD0009A99999897979695959493939291919093
:103DE0008F8F8E8E8D8C8C8B8B8A89898888878724
:103DF0008685858484838382828181800000FF0799
:103E00000000F87F51EA030C17D41CF5801F58BF3F
:103E1000BCF5801F00F10680994218BF704708BFAB
:103E20009042704707D711F5801F58BF13F5801FC8
:103E300019D499427047894270471CF5801F08D5F4
:103E4000BCF5801FF7D58B4218BF704708BF824270
:103E500070474FF4001C1CEB410F38BF1CEB430FA5
:103E600001D28B42704770B500F03EF992244900B0
:103E70004FF000514FF08053FFF75EBEB0FA80F371
:103E800010FA03F10AD0C3F11D0303F580634FEA72
:103E900003524FEA415002EBD12170474FF000002E
:103EA0007047000051EA030C17D41CF5801F58BF5F
:103EB000BCF5801F00F10680994218BF704708BF0B
:103EC0009042704707D711F5801F58BF13F5801F28
:103ED00019D499427047894270471CF5801F08D554
:103EE000BCF5801FF7D58B4218BF704708BF8242D0
:103EF00070474FF4001C1CEB410F38BF1CEB430F05
:103F000001D28B42704770B500F0EEF89224490060
:103F10004FF080514FF00053FFF70EBE51EA030CF3
:103F200017D41CF5801F58BFBCF5801F00F1068018
:103F3000994218BF704708BF9042704707D711F5E4
:103F4000801F58BF13F5801F19D4994270478942CA
:103F500070471CF5801F08D5BCF5801FF7D58B4234
:103F600018BF704708BF824270474FF4001C1CEB1B
:103F7000410F38BF1CEB430F01D28B42704770B525
:103F800000F0B2F8922449004FF000514FF08053F6
:103F9000FFF7D2BD70B5DFF848C11CEA111E1EBF85
:103FA0001CEA13159EEA0C0F95EA0C0F00F06F80C7
:103FB00081EA03044EEAD47EAE4421EA4C1123EA9E
:103FC0004C1341F4801143F48013AEF17F7EA1FBCA
:103FD000024CA0FB0365361955EB0C05A1FB034C05
:103FE0004CF10003A0FB021C16EB0C06654153F1DB
:103FF0000003094218BF46F0010613F4007F0BD1FD
:104000004FEA03314FEA053041EA155140EA1650B4
:1040100034036FF003020AE04FEAC3214FEAC520E0
:1040200041EA555140EA5650F4026FF0020202EBA9
:104030002E4201EB025585EACE710AD05FEA440CAC
:1040400018BF24F0004450F1000041F1000120EAC3
:10405000D47040F2FE7C624500D270BDA84214BF0D
:104060004FF080444FF04044002E08BF0024BEF1C2
:10407000806FA8BFA1F1C041BDE8704080F282808E
:1040800001F1C04101F000414FF0000070470CEA1F
:1040900013159EEA0C0F18BF95EA0C0F06D081EAA3
:1040A000030E4FF000000EF0004170BD00F01CF850
:1040B0008900013E00F007B800F009B84FEA430C50
:1040C0005FEA5C5C08D081EA030100F05BB84FEA6C
:1040D000410C5FEA5C5CF6D102494FF0000070478A
:1040E0000000FF070000F87F0EF1020E2EF0030E15
:1040F0005EF8046B364205D4012A43EB030515F53F
:10410000001F12D8012841EB010C1CF5001F0CD830
:104110000ED14FEAD17C0CEB4C0C0CF1020C15F5D6
:10412000001F08BF4CEBD37C04E04FF0080C01E00B
:104130004FEAD37C0CEB4C0526FA05F606F0070691
:10414000B6F1040C06D20EEB860CBDE870404CF0C4
:10415000010C6047DFE80CF0090B02024FF0004150
:10416000A1F500214FF0000070BD1946104601284E
:1041700051EB010418BFD4F5001484BF002001F0F6
:10418000004170BD0808A0F500114FEA31017047E9
:1041900010B591EA030F48BF83F000433FF52CAC04
:1041A000841A71EB030C07D28CF0004C121943EB0C
:1041B0000C03001B61EB0C014FEA1154A4EB135CE0
:1041C000DFF8A4E11EEA430F18BF9EEA445F00F047
:1041D000B48021EA045123EA6E035242C3EB6E031A
:1041E00038BF5B1EDCF1200E25D322FA0CFE10EB4B
:1041F0000E0043FA0CFE41EB0E01CCF1200E03FA47
:104200000EFE10EB0E00CCF1200E51F1000129D46E
:1042100001EB045112FA0EF2BDE8104058BF70478E
:10422000401C1CBFB2F1004F704700280CBF491C56
:1042300020F00100704712EB020E43EB030218BF9F
:104240004FF0010E4EEA4202ACF1200CDCF11E0EE2
:1042500056D943FA0CFE10EB0E00CCF11E0E51F1B4
:10426000FF31D5D50EF1010E12FA0EFE404141EBA1
:10427000010101EB445C5FEA5C5C10D901EB045185
:1042800010EBDE7038BFBEF1004FBDE8104018BF24
:10429000704700280CBF491C20F00100704734D241
:1042A0004FEAD42C24F4006411F500111BD0B1FAAC
:1042B00081F20B3AA41AA41ED2F12003914030FAE5
:1042C00003F31943904001EBCC7101EB0451002C36
:1042D000BDE81040A8BF704701F1C04101F00041A6
:1042E0004FF000007047B0FA80F310FA03F102D1EA
:1042F000BDE810407047E41A173C4805C90AE2E7D8
:1043000001EB0451BDE81040704749104FEA3000FE
:1043100001EB0451BDE8104002E04FF0000170478E
:104320004A0008BF0042F8D0B2F5001F28BF70470E
:1043300001F000414FF0000070479EEA445F07D053
:1043400011EA5E0FBDE8104004BF00210020704755
:10435000BDE8104070B5FFF7C7FE00BF40DFF63E76
:10436000104683F0004170470000E0FF43004FEA31
:10437000D30C4FEA3C0C43401FBF40070CF1605187
:1043800013F0FE4F70471CF0006F03D10CF000419A
:10439000002070470CF0004343EA507040EACC0024
:1043A00010B500F08CF900BF000000924FEA000148
:1043B000FFF7E8BE4FF00041A1F500214FF00000EB
:1043C000704710B5FFF71EFD0CBF0120002010BD87
:1043D00010B5FFF717FD14BF0120002010BD10B568
:1043E000FFF760FD8CBF0120002010BD10B5FFF766
:1043F00059FD2CBF0120002010BD10B5FFF78EFD28
:1044000094BF0120002010BD10B5FFF787FD34BF19
:104410000120002010BD10B500F034F80CBF0120C1
:10442000002010BD10B500F02DF814BF01200020B1
:1044300010BD10B500F05AF88CBF0120002010BD4F
:1044400010B500F053F82CBF0120002010BD10B5AE
:1044500000F080F894BF0120002010BD10B500F0DE
:1044600079F834BF0120002010BD401058BFC0F1C2
:104470004040491058BFC1F140418142EFF30080F4
:104480007047000050EA010C00F113801CF5000F8A
:1044900058BFBCF5000F01D48842704707D710F50C
:1044A000000F58BF11F5000F15D48842704789429C
:1044B00070471CF5000F04D5BCF5000FF7D58142FD
:1044C00070474FF0807C1CEB400F38BF1CEB410F56
:1044D00001D28142704710B500F0F1F892244900F2
:1044E0004FF000504FF08051FFF7BFBF50EA010C72
:1044F00000F113801CF5000F58BFBCF5000F01D46C
:104500008842704707D710F5000F58BF11F5000F0C
:1045100015D488427047894270471CF5000F04D5B6
:10452000BCF5000FF7D5814270474FF0807C1CEB43
:10453000400F38BF1CEB410F01D28142704710B5CC
:1045400000F0BDF8922449004FF080504FF0005128
:10455000FFF78BBF50EA010C00F113801CF5000F30
:1045600058BFBCF5000F01D48842704707D710F53B
:10457000000F58BF11F5000F15D4884270478942CB
:1045800070471CF5000F04D5BCF5000FF7D581422C
:1045900070474FF0807C1CEB400F38BF1CEB410F85
:1045A00001D28142704710B500F089F89224490089
:1045B0004FF000504FF08051FFF757BF4FF47F0C82
:1045C0001CEAD0121EBF1CEAD11392EA0C0F93EA28
:1045D0000C0F00F0478090EA010F48BF42F4807250
:1045E0004FF0004C4CEA00204CEA012102EB0302A0
:1045F000A0FB0113A2F50002002918BF43F001033C
:104600005B0028BF4FEA330342EB22425FEA132CE0
:104610004CEBC2502EBFBCEB436FB2F57C0F704722
:104620004FEA036CBCF1004F08BF20F00100B2F567
:104630007C0F38BF70470BD582F0FF0212F5803F28
:10464000C8BF704700F1C040D8BF00F000407047BD
:1046500000F5000C5FEA4C0C48BF7047B0F1C04059
:1046600000F073B80CEAD11390EA010F48BF42F48E
:104670008072624538BF634504D280EA010000F0D1
:104680000040704710B500F01AF800BF8900013EE5
:1046900000F007B800F009B85FEA410C5FEA1C6C53
:1046A00008D080EA010000F050B85FEA400C5FEAF1
:1046B0001C6CF6D14FF00040A0F5800070470EF161
:1046C000020E2EF0030E5EF8044B244204D44FEA8F
:1046D0004102B2F17F4F11D84FEA4003B3F17F4F4F
:1046E0000CD80ED14FEAD07C0CEB4C0C0CF1020C28
:1046F000B2F17F4F08BF4CEBD17C04E04FF0080CC7
:1047000001E04FEAD17C0CEB4C0324FA03F404F0F3
:104710000704B4F1040C06D20EEB840CBDE8104083
:104720004CF0010C6047DFE80CF0070802024FF084
:104730000040A0F5800010BD0846420018BFD2F12D
:10474000807288BF00F0004010BDFF2141EAD050C8
:10475000C0057047FBF726BF02400000000000A024
:104760000000000005400000000000C8000000003C
:104770000C4000000000409C0000000019400000B8
:104780000020BCBE0000000034400000BFC91B8EEA
:1047900000000004B5400000504BCFD06607E2CFC8
:1047A000010000006C4100003E8251AADFEEA734F8
:1047B00001000000D9420000DCB5A0E23A301F97AA
:1047C000FFFFFFFFB4450000FD25A0C8E9A3C14FCE
:1047D000FFFFFFFFFF3F000000000080000000001F
:1047E000FF3F000000000080000000000102000008
:1047F0000000000000000102030406070809000091
:10480000000001020304000000000000000000009E
:104810000000000000000000000000100010001068
:104820000010001000100000001000000000002820
:104830000028002800000000000000000000000028
:10484000000000240024007C00240048007C004874
:1048500000480000000000380054005000380014E8
:10486000005400540038001000000020005400588C
:104870000030002800540014000800000000001060
:1048800000280028001000340048004800340000D0
:1048900000000010001000100000000000000000E8
:1048A0000000000000000008001000200020002090
:1048B0000020002000200010000800200010000848
:1048C0000008000800080008000800100020001080
:1048D0000038001000280000000000000000000068
:1048E00000000000000000100010007C001000100C
:1048F00000000000000000000000000000000000B8
:104900000000000000100010001000000000000077
:10491000000000000038000000000000000000005F
:104920000000000000000000000000000010000077
:104930000000000800080010001000100010002007
:1049400000200000000000380044004400540044EF
:104950000044004400380000000000100030005007
:1049600000100010001000100010000000000038BF
:10497000004400440004000800100020007C0000F7
:104980000000003800440004001800040004004443
:104990000038000000000008001800280028004827
:1049A000007C0008000800000000007C004000407F
:1049B00000780004000400440038000000000038C3
:1049C00000440040007800440044004400380000E7
:1049D0000000007C000400080010001000200020EF
:1049E000002000000000003800440044003800446B
:1049F0000044004400380000000000380044004437
:104A00000044003C000400440038000000000000A6
:104A10000000001000000000000000000010000076
:104A20000000000000000000001000000000000076
:104A300000100010001000000000000C00300040CA
:104A40000030000C0000000000000000000000002A
:104A5000007C0000007C000000000000000000005E
:104A60000000006000180004001800600000000052
:104A7000000000380044000400080010001000008E
:104A800000100000000000380044004C0054005C9E
:104A900000400040003800000000001000280028FE
:104AA00000280028007C004400440000000000783A
:104AB00000440044007800440044004400780000B2
:104AC0000000003800440040004000400040004426
:104AD000003800000000007000480044004400441A
:104AE00000440048007000000000007C00400040CE
:104AF000007C004000400040007C00000000007C82
:104B000000400040007800400040004000400000AD
:104B100000000038004400400040005C00440044B5
:104B2000003800000000004400440044007C0044C1
:104B30000044004400440000000000380010001051
:104B400000100010001000100038000000000004E9
:104B500000040004000400040004004400380000C5
:104B60000000004400480050006000500048004829
:104B700000440000000000400040004000400040B1
:104B800000400040007C000000000044006C006C0D
:104B9000005400440044004400440000000000446D
:104BA0000064006400540054004C004C00440000B9
:104BB0000000003800440044004400440044004425
:104BC00000380000000000780044004400440078F1
:104BD0000040004000400000000000380044004455
:104BE00000440044004400540038000400000078F1
:104BF000004400440044007800480048004400009D
:104C00000000003800440040003000080004004468
:104C1000003800000000007C0010001000100010A0
:104C20000010001000100000000000440044004488
:104C300000440044004400440038000000000044E8
:104C40000044004400280028002800100010000044
:104C5000000000440044005400540054006C00283C
:104C60000028000000000044002800280010001068
:104C700000280028004400000000004400440028F0
:104C80000028001000100010001000000000007C40
:104C9000000400080010001000200040007C00000C
:104CA000000000180010001000100010001000108C
:104CB000001000100018002000200010001000104C
:104CC0000010000800080000000000300010001074
:104CD0000010001000100010001000100030001034
:104CE0000028002800440000000000000000000030
:104CF00000000000000000000000000000000000B4
:104D00000000000000FE0020001000000000000075
:104D1000000000000000000000000000000000385B
:104D20000044003C0044004C0034000000000040FF
:104D30000040005800640044004400640058000033
:104D40000000000000000038004400400040004423
:104D5000003800000000000400040034004C00444F
:104D60000044004C00340000000000000000003847
:104D70000044007C00400044003800000000000CAB
:104D80000010007C00100010001000100010000047
:104D90000000000000000034004C00440044004CBF
:104DA00000340004007800400040005800640044D3
:104DB00000440044004400000000001000000070A7
:104DC0000010001000100010001000000000001083
:104DD0000000007000100010001000100010001003
:104DE00000E00040004000480050006000500048D3
:104DF00000440000000000700010001000100010BF
:104E000000100010001000000000000000000078FA
:104E100000540054005400540054000000000000EE
:104E200000000058006400440044004400440000B6
:104E3000000000000000003800440044004400442A
:104E4000003800000000000000000058006400442A
:104E5000004400640058004000400000000000349E
:104E6000004C00440044004C0034000400040000E6
:104E70000000005800640040004000400040000076
:104E8000000000000000003800440030000800442A
:104E900000380000000000200020007800200020E2
:104EA0000020002000180000000000000000004466
:104EB000004400440044004C0034000000000000A6
:104EC00000000044004400280028002800100000D2
:104ED000000000000000005400540054006C002842
:104EE000002800000000000000000044002800101E
:104EF00000100028004400000000000000000044F2
:104F0000004400280028001000100010006000007D
:104F10000000007C0008001000200040007C000021
:104F200000000018001000100010002000200010E9
:104F300000100010001800100010001000100010E9
:104F400000100010001000100010003000100010C1
:104F500000100008000800100010001000300000D1
:104F6000000000000074004C000000000000000081
:104F7000000002030405060708090A0B0C0D0E0FBA
:104F800010100000C04F00080000002018000000B2
:104F900028010008D84F000818000020580B000016
:104FA000440100081C00000043000000F8FFFFFF60
:104FB0000C0000000E0000000F0000002E0000009A
:104FC0000100000010000000070A00000648000869
:084FD0000024F40000000000C1
:04000005080000ED02
:00000001FF
